:020000021000EC
:10800000004000204DFC010089FC01008BFC0100B8
:108010000000000000000000000000000000000060
:108020000000000000000000000000008DFC0100C6
:1080300000000000000000008FFC010091FC010026
:1080400093FC010031AB01000903020093FC010025
:1080500093FC010000000000C5FC010093FC01003E
:1080600093FC0100FD0402009101020093FC010059
:1080700093FC010093FC010093FC010093FC0100C0
:1080800093FC010093FC010093FC010093FC0100B0
:1080900093FC0100A5DF01005DFA010093FC0100E3
:1080A00093FC010093FC01000000000000000000B0
:1080B00000000000000000000000000000000000C0
:1080C0000448054B10B5834203D0044B002B00D06D
:1080D000984710BDAC200020AC200020000000001C
:1080E00006480749091A8B10C90FC91810B549105D
:1080F00003D0044B002B00D0984710BDAC200020CB
:10810000AC2000200000000010B5074C2378002BA5
:1081100009D1FFF7D5FF054B002B02D0044800E042
:1081200000BF0123237010BDC82000200000000004
:1081300030770200054B10B5002B03D004490548E9
:1081400000E000BFFFF7CCFF10BDC04600000000FC
:10815000CC20002030770200402292029A1A9246E8
:108160007047C046154B002B00D1114B9D46FFF7C1
:10817000F3FF00218B460F461148124A121A09F0EC
:1081800033FE0C4B002B00D098470B4B002B00D03C
:1081900098470020002104000D000B4809F0B4FCB2
:1081A00009F0FAFC200029000EF08BF809F0CAFC57
:1081B0000000080000000000000000000040002057
:1081C000B0200020682A0020711B020010B50400B6
:1081D000034B036040300BF08FF8200010BDC04609
:1081E0006C66020070B50B48FA2500F01FF9AD006F
:1081F00009480CF0F8FA094C0200094920000DF07A
:1082000028FF280000F084FD200006490DF021FF22
:10821000EEE7C046FC200020E420002000210020E2
:10822000607102006371020070B50A4C200000F01A
:1082300047F8094D20002A0008490EF0E1F9084CE2
:108240000821200002F084FE2A00200005490EF0DB
:10825000D7F970BDFC2000200020002069820100B9
:10826000E4200020C92E0200CB23144A9B0010B545
:10827000C2501C330400C0180BF03EF8D1239B0001
:10828000E0180BF039F820009130FF3001F058FB76
:1082900020006930FF3001F053FB2000F03001F086
:1082A000C1FE2000D03002F01BFA2000643007F03D
:1082B0002BFC201DFFF78AFF200010BDF86A02008A
:1082C0001423F0B5040093B0192200931821043050
:1082D00002F07EFC23002500260064331800B4352C
:1082E00013211093B83607F01BFC28000CF028FA75
:1082F00000221E2130000BF0B0FE2000D03002F032
:108300000FFA2300F03307211800454A119301F0BA
:10831000B1FE20000027012369301A0011210097C7
:10832000FF3001F019FB20009130012302221A21B5
:108330000097FF3001F010FB2000B930022201212C
:108340000323FF3002F0B8FA300001F00BF9E42308
:108350005B00E050300001F059FBE6235B00E05089
:108360000100E42220005200D130119BA258009558
:10837000FF3001F04DFC2000E13029000822FF30E1
:1083800002F0C2FD782320000F93013B0E93033BC4
:108390000D93013B0C93013B0B93013B0A93013B73
:1083A0000993013B0893013B0793013B0693013B73
:1083B0000593013B0493013B0393013B0293013B73
:1083C0000193F930013B652200936421013BFF30AA
:1083D0000BF064FECB239B002900E01803F064FD42
:1083E000D4239B00E018092102F03EFBDE239B0012
:1083F000E7501098032127700DF0F3FD23002200B1
:10840000200008499C33A0321C6082C2064A022127
:108410005A618030012207F007FD200013B0F0BD43
:1084200074660200FF2E0200E92E02000278F0B509
:108430000123170004008FB01F401A4200D085E0CE
:108440000300D0331800039300F0D2FA00F0E4F9EF
:1084500030200EF0E4F8050010300AF0DCFF2800B0
:1084600024300AF070FE6F4B18202B600EF0D7F806
:1084700006006D4B0822390004600C300C930D97F8
:1084800009F0B2FC0CA90822301D09F005FC674B6D
:108490002900736112230398AE60EF60AB802F62F6
:1084A000EF6202F0B1F8002805D028000AF0D8FEEB
:1084B00028000EF0ACF8012327002278B4371343CC
:1084C00023705B4938000CF041F9002659490590AA
:1084D00038000CF03BF935000690642000F018FCE1
:1084E000049623006933FF33180007930BF0B0F9AB
:1084F00000282DD1059B002B34D1069B002B31D1B8
:10850000DE254D494D48AD0000F0C6FC6359002BF7
:108510001CD100F0A1F801000BA800F011FE0CA87E
:108520000AF061FDCB239B00E018069B0CAA0BA967
:108530000093039B03F012FD0CA80AF0DDFE0BA8CC
:108540000AF0DAFECD239B00E35863510FB0F0BD73
:1085500020009130FF300BF07BF90028CAD0049B3B
:10856000182BC7DC20006530FF2329B232B2FF3060
:1085700000F062FE322000F0CBFB049B013501339A
:10858000EDB20493052D02D100250136F6B2049B0D
:10859000192B0AD0059B002BA3D03800244902F0E8
:1085A00045FC05980EF033F802E0059B002BF4D152
:1085B000069B002B02D018000EF029F81E491F4818
:1085C00000F06AFCCB239B00E3180893DE239B009A
:1085D000E3580993002B1ED100F03EF801000BA8D0
:1085E00000F0AEFD0CA80AF0FEFC01230CAA0BA9BA
:1085F00008980093039B03F0B1FC0CA80AF07CFEE2
:108600000BA80AF079FECD239B00E3580993DE23E3
:10861000099A9B00E2502100079A0898F03103F074
:108620008DFE5EE7FD030000712F0200312F020076
:10863000667102007171020000200020001C002001
:10864000BFF34F8F024B034ADA60BFF34F8FFEE751
:1086500000ED00E00400FA05F0B58BB003AF19227D
:108660003800154909F018FB0023144D05266B71DD
:1086700080235B055B6E2C00009301230193310086
:10868000009808F0D5F80800019908F04BF8052289
:10869000009B56431B1A0093019B534301932B1BD2
:1086A0005343FB181B5C013C6371054B9C42E6D1B4
:1086B00002480BB0F0BDC046B7710200A2290020ED
:1086C0009D290020F0B595B01822002104000EA8C5
:1086D00009F08AFB13210EA80DF0D9FD03210EA885
:1086E0000DF078FE464B1B68002B00D10133DBB246
:1086F000009300210123434A09A807F005FDFA234E
:108700009B009C429B411C4072B63F4B64211E68FB
:108710003E4B20000593052508F08EF86843503045
:1087200030180A210690200008F086F80A2108F087
:1087300069F9694350317118200007910A2108F046
:1087400061F9694350317118802600240891B601FF
:10875000009B002B52D004AD0027032C02D18026B1
:108760000024B6016B682A4A02936300D3180022E2
:10877000019258780299095C039119788C4610216E
:10878000604601410398014204D0012090400199C4
:108790000143019101320633092AEAD1019B2A687B
:1087A000D9431C4B09011940029B934224D1312F1C
:1087B00022DC002109A80DF0C6FEFA23139A0F99B6
:1087C000DB001068014219D0013B002BF9D1FA23DC
:1087D000013401377600E4B25B009F42BDD104351D
:1087E00008ABAB42B8D1064B1B68002BB0D0009B46
:1087F000013BDBB20093ABE73143DBE7FFF720FF40
:108800007C240020F0FF00000420002006720200FB
:10881000D0710200F01F0000F8B50023124C236055
:108820000AF002FC002808D0042120000AF0F8FB1E
:10883000002801D00D4B2360F8BD0123A12704219E
:108840000B4A0C4D13602368FF0068606E68002EB1
:10885000FCD0D6591B02013933430029F5D12360DE
:1088600001235360E8E7C04678240020ED5EBC0B8E
:1088700000D00040FCD000400B4B70B51C68002CB1
:1088800010D0656D00F018FCA36C002901D1834263
:1088900006D820000AF01FFC200004490AF00BFC57
:1088A0002C00ECE770BDC04684240020A4240020E6
:1088B000F0B595B007932A4B04AC1E68049005915F
:1088C0000692002E49D0274B678825881C68002314
:1088D0000293002C2DD0636D23480393A36C190CD5
:1088E0009AB20B00854214D12048824211D100294E
:1088F00001D0B9420BD1029B002B08D120000AF015
:10890000EAFB20001A490AF0D6FB01230293039CDC
:10891000DFE7002A01D09542F9D1002901D0BB42FE
:10892000F5D120000AF0D7FB200011490AF0C3FB63
:10893000EDE7104BEB18012B0FD910233A0029005B
:10894000009308A80C4B0AF071FC336830009B6858
:1089500008A9984708A80AF083FC15B0F0BDC046E6
:1089600080240020B4240020FE030000FF03000048
:10897000A424002002FCFFFFB188010010B572B6EC
:108980000E4B1C68002C0ED020000AF0A4FB002324
:10899000E3640B4BE36372B60A4B1A681C60A26572
:1089A00062B6200010BD62B65C200DF038FE5C227D
:1089B0000021040009F018FAE9E7C046AC240020C1
:1089C00000400020A8240020074B10B51C68E36C71
:1089D000DB0706D5FFF7D2FF044B1860002800D054
:1089E0000400200010BDC046B824002088240020C8
:1089F000F7B51E4C0123227816001E401A4233D1CF
:108A00001B4D2860FFF7BAFF1A4B1B4918600AF08C
:108A100052FBFFF7B3FF194B1860194B4363194B17
:108A20008363286800280FD0C023174F32001749EE
:108A300000933B000AF019FBC023009332003B0077
:108A4000134928680AF011FB0C200DF0E8FD002303
:108A5000838083710F4B03600F4B836000F044FBF6
:108A60000123227813432370F7BDC046A8290020B4
:108A700080240020B8240020A4240020B02400205A
:108A8000FC3F00203B310200B1880100FF030000E1
:108A9000FE0300009466020079880100024B1878FA
:108AA000012318407047C046A8290020F7B5134F8E
:108AB00004003B680E00002B1ED0114B1B78DB0717
:108AC0001AD5FFF781FF05003304234383640AF0BE
:108AD00002FB28000B490AF0EEFA0B4B0025E318C5
:108AE000012B07D9C023009332002100074B3868BF
:108AF0000AF0BBFA2800FEBD054DFBE780240020EC
:108B0000A8290020B424002002FCFFFFB188010046
:108B100016FCFFFFF7B506000D00170001930028B3
:108B200002D100242000FEBD0029FAD0FFF726FF65
:108B3000041EF6D0074B019A43630660064B45605E
:108B40008760002A00D0054B20000549A3630AF086
:108B5000B2FAE7E7FC3F00201531020023310200A2
:108B6000A424002070B5074B0E0011001A780500F0
:108B70000123100018401A4203D032002800FFF7EA
:108B8000C9FF70BDA8290020F8B50500EFF30884DF
:108B9000C36B006C1C1B6B6C1B1A9C420FD91F23F0
:108BA000074E203437689C43002801D000F0D6F9E6
:108BB000200000F09FF92864001968643760F8BD50
:108BC000B8240020024B1868434258417047C04601
:108BD000A42400200300002210B50449940060582A
:108BE000002801D00132F9E7635010BD8C24002029
:108BF000002310B5044A99008C58844201D00133F7
:108C0000F9E70020885010BD8C24002010B5002406
:108C1000084BA200D058002802D003685B68984730
:108C20000134062CF4D1044B1B68002B00D120BF6B
:108C300010BDC0468C240020A42400200122F8B5D9
:108C40002C4B1B7813421CD02B4D2C68E36C134229
:108C500018D002273B43E364284B1E680423F26CC0
:108C600030001343F364636BF363FFF78DFF300051
:108C7000716C03F064FF2868C36C3B4201D003F0C1
:108C800098FFF8BD1E4F1F4E3A683068002A0AD17F
:108C900028601B0712D52C60FFF7B8FF3B68002B3C
:108CA000FAD02B600AE0216DB94219D1616D00291B
:108CB00000D1110029602A688242EAD029688C42DA
:108CC000DFD0336899420DD10F4B4B630F4B8B6351
:108CD0002000FFF759FF296820004B6C626C06E00A
:108CE0002A60E8E79C42F3D1002210004B6C03F0AD
:108CF000E5FEC6E7A8290020B8240020882400202B
:108D0000A4240020B0240020FC3F00203B310200BE
:108D100070B50C4B04001B78DB0702D40DF053FB3D
:108D200070BDFFF751FE050000F0C6F92418AC64D1
:108D300028000AF0D0F9280003490AF0BCF9FFF72F
:108D40007DFFEDE7A829002084240020F8B51B4B07
:108D50001B78DB0727D50024194E30680AF0BBF9D1
:108D6000184D2B68002B02D05B6D0134FAE7032C01
:108D70000ADD2F68013C7B6D386C2B6000F0EEF84B
:108D8000380000F0EBF8F2E7290030680AF093F9B8
:108D900072B60D4932680B68934206D19B6D0B6029
:108DA00062B6FFF74BFFF8BD0B00002BF8D0996DB2
:108DB0008A42F9D1926D9A65F2E7C046A82900204F
:108DC000B8240020AC240020A824002010B5034BB8
:108DD0001B78DB0701D5FFF7B9FF10BDA8290020DC
:108DE000F7B505000C00002833D001261B4B1B787B
:108DF000334230D01A4F07233868C26C1100194033
:108E000000911A4207D021002800164AFFF7AAFE57
:108E100000252800FEBD03F0B4FE3A680221D36CA1
:108E20001800084001900B4203D001318B43D364FA
:108E3000EEE73343D3642000A8473A68019DD36C22
:108E40001900B143D1645B07E3D52000FFF7BEFFF3
:108E5000DFE7054DDDE7054DDBE7C046A82900202B
:108E6000B8240020CD8D010017FCFFFF16FCFFFF8A
:108E7000020010B5014B12CB12C210BDBC24002061
:108E8000034B1A68034B1A607E225A607047C04633
:108E900004200020BC240020F0B5124E03003278DC
:108EA000022A1BD081421BD90C1A072C18D90D009D
:108EB00005430327280038403D4211D172B6BA401D
:108EC000094DA4085351AA18516080221206144378
:108ED0001C6033780133337062B6F0BD0348FCE7A1
:108EE0000348FAE7AA290020C424002013FCFFFF4E
:108EF00017FCFFFF70B5041E23D0124D124E2B78C5
:108F0000002B0CD1114912483370FFF7C5FF114BEC
:108F1000984202D11E20FFF7D5FB01232B700025BC
:108F20003378AB4209DD0C49EB002000C9180AF088
:108F30000EF9002805D10135F2E71420FFF7C2FB36
:108F4000002070BDA9290020AA2900200038002097
:108F5000682A002017FCFFFFC424002010B5002859
:108F600017D000220F4B19780F4B914215DD1C686A
:108F700084420FD25C6884420CD9041F2368002B02
:108F800002DC1E20FFF79EFB802322681B06134392
:108F9000236010BD01320833E7E71E20FFF792FB84
:108FA000F7E7C046AA290020C424002070B5051E9A
:108FB00014DD0B4E0B4C3368002B02D020680DF0F3
:108FC000B9F8FA2120680024074B89008361C46244
:108FD000694335600DF0BFF8200070BD0348FCE721
:108FE000D4240020042500209590010017FCFFFFE9
:108FF000F8B5114F05003E68002E0AD130200DF063
:109000000EFB040006F0F4FD0C4BA6612360E66243
:109010003C600B4E3368002B09D110200DF0FFFA95
:1090200004000DF0E4F8200034600DF0BAF82800D8
:10903000FFF7BCFFF8BDC04604250020A06E02006B
:1090400000250020014B18687047C046D42400203A
:1090500070B50D4C2368002B03D00C4B1B68002B04
:1090600002D10620FFF7C4FF20680DF0B1F802001E
:109070000749C3170D684E685219734120680A608A
:109080004B600DF0ABF870BD0025002004250020DA
:10909000B020002010B5FFF7DBFF0024054BA20035
:1090A000D058002802D003681B68984701340A2C66
:1090B000F4D110BDD824002010B5FFF7C9FFFA2263
:1090C000034B920018685968002307F0DBFC10BDC1
:1090D000B020002010B5FFF7BBFF024B186859689D
:1090E00010BDC046B02000200B4B10B51B6804001B
:1090F000002B03D0094B1B68002B02D10620FFF781
:1091000077FF0023064A99008858002801D00133D0
:10911000F9E78C5010BDC046002500200425002032
:10912000D8240020002310B5044A99008C588442AA
:1091300001D00133F9E70020885010BDD824002069
:1091400010B50400002902D00B78002B03D1034B8B
:109150002360200010BD0AF0D6F8FAE7A4660200EA
:10916000F8B504000E00150000290AD00B78002B7A
:1091700007D0002A05D0080097B209F09FF887426F
:1091800003D90B4B23602000F8BD681DFFF7B2FE2A
:1091900020600AF05CFA20682A0047803100043021
:1091A00008F07AFD23685D1900232B71EBE7C046B8
:1091B000A4660200014B03607047C046A46602002B
:1091C00010B50548054C20600AF044FA2000044A16
:1091D00004490DF015FA10BDA46602000825002010
:1091E00000200020F9320200084B73B51D6804000E
:1091F000002D0AD001002E6808220831684608F0C8
:109200004BFD0CCC28003168884773BD0C2500202D
:10921000014B03607047C046AC66020010B5040005
:10922000081E03D1034B2360200010BD21600AF00B
:1092300011FAF9E7AC66020030B500684488A14233
:109240000CDA8588AA4209DA002907DB002A05DB47
:109250006243401880188371002030BD0048FCE74D
:1092600017FCFFFFF0B507000E001D0085B00029B8
:1092700021DD002A1FDD002B1DD0046863880393C5
:109280008B4200DD0391A3880293934200DD02929A
:10929000002306340193019B029A93420ED02900C9
:1092A0002000039A08F0F8FC3B68AD195B88E418CD
:1092B000019B0133EEE7024805B0F0BD0020FBE75B
:1092C00017FCFFFFF8B504000D0016001F00002971
:1092D00001DB002A02DA0D4B2360F8BD1000484381
:1092E0000630FFF707FE20600AF0B1F923685D80C1
:1092F0009E80002F06D03B00320029002000FFF79F
:10930000B1FFEAE720000AF0D7F8E6E7AC66020012
:10931000F7B507000D1E03D1244B03603800FEBDD6
:10932000002408002600210001940378002B1AD0A5
:109330003022524294469C446246092A11D90A2B93
:109340000AD1019B361901330193B14200DA310091
:10935000002426000130E8E7002CFBD00024013671
:10936000F8E70124F6E7019A380012B209B2FFF7D4
:10937000A9FF012149420E000A203B689A1D2C7862
:10938000002CCBD02300303B092B08D8CB43DB1774
:109390000B4043431B19303B19000135EFE700290F
:1093A000FBDB117031000132F7E7C046AC6602000A
:1093B000F0B5040087B004A80E001D000192FFF76D
:1093C00057FD236801995A88914233DA9B889D4260
:1093D00030DA1F2E2ED9059B00939E422ADC0523EE
:1093E00000217343049AA03BD3180393039B6E1888
:1093F0005B5C02930023019AD71822685088009082
:10940000B8420EDD9088B0420BDD0098D21970434F
:10941000121810201841029F3840471EB8414042A0
:1094200090710133052BE6D101310529DED10020F1
:1094300007B0F0BD0048FBE717FCFFFFF7B5036876
:1094400006009F1D5B880D005A1A0192002919DD44
:109450000024994203DB0AF02FF8002013E0336860
:109460009B889C42F9DA79193800019A08F014FCBB
:10947000019B2900F8180AF002F8336801345B8870
:10948000FF18ECE70048FEBD17FCFFFF10B50548CC
:10949000054C20600AF0DEF82000044A04490DF073
:1094A000AFF810BDAC66020010250020002000209F
:1094B0007134020010B5054C012120000AF0BEF8FD
:1094C0002000034A03490DF09BF810BD142500202D
:1094D00000200020F9350200074A030010B50120E2
:1094E000934208D0834202D00020DB0703D41E2021
:1094F000FFF7E8F8002010BDFFFF000000487047AC
:1095000016FCFFFF10B53220FFF7DCF8004810BD55
:1095100016FCFFFF82801422002310B541620F4C1D
:109520000100083404600E240281123A83718272B1
:109530000363838636310A78C360A24303614361C3
:109540008361C36103620A70021DD38701224287CF
:10955000034AC26302004032137010BDCC660200A1
:1095600001000100F0B5564E0500376897B0002F96
:1095700000D090E006AC0B231C228221200001F0D9
:10958000D3F90B231D2283210AA801F0CDF90B2367
:109590001B2284210EA801F0C7F908200DF03FF826
:1095A00001223B00110004900BF035FC3A21280009
:1095B0000BF050F900281CD0A38812AFBB80A37910
:1095C000A268BB713F4B5C2012930E23E3561492AA
:1095D000A289BB73BA810DF022F8052301933533BC
:1095E00000933A002900049B040001F09FFF3460BF
:1095F00051E0322128000BF05BF900281BD0A38832
:1096000012AFBB80A379A268BB712E4B5C20129372
:109610000E23E3561492A289BB73BA810CF0FFFFAC
:10962000052301932D3300933A002900049B040085
:1096300002F020F9DBE73C2128000BF0F4F80028C9
:1096400034D0362202AB9B8E12AFBB8002AB9B188C
:109650001B780832BB711B4BA420129302AB9B18E2
:10966000109A1B781492059202AA928F5BB2BA816B
:10967000BB730CF0D4FF062304000293013B01935B
:10968000373300933A00049B290001F06FFE0E4B24
:10969000346044341C600C4B094C1868002802D01C
:1096A00021680AF043F9206817B0F0BD44200CF09F
:1096B000B6FF052204990400FFF72CFF97E7C04688
:1096C00018250020BC6602001C250020F0B5634967
:1096D000C56885B08D4258DA030036331C78022203
:1096E0002300134014425BD1026901928A4265DA79
:1096F00002003632127852076AD44269029202009E
:10970000029C40328C4270DA010036310978090738
:1097100075D4002B7ED113789C46002B16D0010007
:10972000061DF38F363101339BB2F387039109781D
:1097300001270C003C40394200D188E01D2B05D99F
:10974000039BB94319700023F387137009F0CEFF10
:10975000434A0723904277D94249043B8D4273DB49
:10976000C8220133920095426EDC0198023B884288
:109770006ADB013B904267DC02980433884263DB7A
:109780000023904260DD06335EE0C82200235200D1
:109790009542A9DD030036331A7800239207A3D43B
:1097A000012306001F00363632785408A7433C00D8
:1097B00002279C40BA432243327095E7C822019C9D
:1097C0005200944299DD020036321278520794D446
:1097D000012306001C00363632789708BC43A700E8
:1097E0000424A2433A43327087E7C821029C49000F
:1097F0008C428EDD010036310978090789D40100D9
:10980000012636310B78DF08BE430827F600BB433C
:1098100033430B701378032B00D97CE70133DBB2A1
:109820001370012B03D10021031DD98773E7042B8B
:1098300000D070E7020036321178033B0B431370FF
:1098400000230430C3870B33180005B0F0BD092B8B
:1098500000D87BE76346F487013B76E770FEFFFFA5
:10986000FF700200E0FCFFFFF0B5C369C1681A6831
:10987000451D0400EB7F89B0114225D0002B57D144
:109880000123A2791A4237D0002602226846A18815
:10989000A67109F0CAFDA31DDD7F012D2CD1FFF7B4
:1098A0000BFC3300226A801A99410F000600A18840
:1098B0009F4203D1FA239B009E423BD30123042203
:1098C00004A809F0B2FD17E00B2B01D80133EB77A8
:1098D000EB7F082B0DD90122A37913420CD113433E
:1098E000A188A37104A8130009F09FFDFFF7E4FB12
:1098F0002062EB7F012BC3D90322A3791340012BF4
:1099000014D1FFF7D9FB0023226A801A99419942AA
:1099100002D10A4B984209D90223A279A1881343A4
:10992000A3710522012304A809F07FFD09B0F0BD51
:10993000013BCCE72B000322C2E7C046DB05000059
:1099400010B50400034B08330360FFF7EBFB200066
:1099500010BDC04600670200F0B5060000250F00EC
:10996000040085B002930AAB1B78083603930F4BB3
:109970002900083303600192858085711822300028
:1099800008F032FA39003000039A0CF085FC019B94
:10999000029AA380A31DE771DA77631D2562200078
:1099A000DD77FFF7A1FB200005B0F0BD00670200E6
:1099B0000048704716FCFFFF10B53320FEF782FE0B
:1099C000004810BD16FCFFFF002310B50400838083
:1099D00083710D482164083020608020C000A061A0
:1099E000E061206211002000E36023616361636233
:1099F000A362E36223636363A363E363636409F0C5
:109A00006DFF200010BDC04618670200F0B5544E2F
:109A10000500376897B0002F3DD10B231C2282210F
:109A200006A80AAC00F080FF0B231D228321200032
:109A300000F07AFF0B231B2284210EA800F074FF94
:109A400008200CF0ECFD01223B00110004900BF00B
:109A5000E2F91D2128000AF014FF002824D0A38871
:109A600012AFBB80A379A268BB713E4B60201293FA
:109A70000E23E3561492A289BB73BA810CF0CFFD7A
:109A800006230193173300933A002900049B040036
:109A900001F020FE3460344B314A1B681068002B03
:109AA00000D0436417B0F0BD3C2128000AF017FF36
:109AB00000281BD0A38812AFBB80A379A268BB711A
:109AC000284B602012930E23E3561492A289BB7395
:109AD000BA810CF0A4FD06230193363300933A00BB
:109AE0002900049B040001F067FFD3E73C21280014
:109AF0000AF099FE002829D0362202AB9B8E12AFC5
:109B0000BB8002AB9B181B780832BB71154BA4209D
:109B1000129302AB9B18109A1B781492059202AA1A
:109B2000928F5BB2BA81BB730CF079FD06230400FF
:109B30000293013B0193373300933A00049B2900C1
:109B400001F014FC084B1C604434A3E748200CF0DF
:109B500066FD062204990400FFF736FF9AE7C04627
:109B60001C250020BC66020018250020F0B587B037
:109B700001930EAB1B88060003930D9B0D00009311
:109B8000019B0C9F0292002B3DD0002F02D1009B25
:109B9000DB0738D530200CF042FD0400103009F00E
:109BA0003AFC2000243009F0CEFA029B18202580D0
:109BB00063800CF034FD0500009B08220593019B97
:109BC000002103600C30049708F00EF9082204A964
:109BD000281D08F061F80D4B02226B6100230399E8
:109BE000E3602362E36233680A43300021005B686C
:109BF000A560A2809847002805D0200009F030FB1E
:109C000020000CF004FD07B0F0BDC0467139020021
:109C100070B58CB08360109B01604260C36004002B
:109C2000184918000AF092FD051E14D001001C22EC
:109C3000103105A808F030F86A4608AB43CB43C2A0
:109C40001B68136020680599069A079B09F058FE67
:109C500028000CF0DCFC0C4B186800280ED00B4AD6
:109C600005AB059200220692C03202926A4622CBD0
:109C700022C2230003220621FFF778FF20000CB048
:109C800070BDC046E67302000C250020919C0100C7
:109C900082B0F0B50400EDB06420739372920CF0C2
:109CA00092FB052210A8110009F00FFC954911A89C
:109CB000FFF72EFB1925002221AB013D1A605A60E7
:109CC0009A600C33002DF8D11522290014A81395A1
:109CD00008F08AF8A0680AF0B9F9FF210A90A06894
:109CE00000F0F8FB884FA06800F0BEFA04950895D4
:109CF0000995854B9F4203D0844B9F4200DBF7E0E0
:109D0000A0680AF0A5F9A56881491AA8FFF718FA12
:109D100078221AA9280000F049FB1AA809F0ECFAE9
:109D20000023794F04930326099B60680133334075
:109D3000099309F073FD0500606809F076FD0022C3
:109D4000744B05929D420FDB013205922A00C83206
:109D50000ADBAA22042192000591954204DC0596B3
:109D6000C82D01DC0222059200220692984210DBE7
:109D7000012306930300C8330BDBAA2304329B00A4
:109D80000692984205DC03230693C82801DC013BB8
:109D9000069310A809F090FB5F4B00251E00079367
:109DA00013ABEB5C012B05D172783178FE3310A830
:109DB000FFF742FA01350236192DF1D16B46182210
:109DC0009A5E6B4610A81421595E099BFFF734FA7E
:109DD000002F02DB049B0F2B07D90023A0681A0079
:109DE0007430009310A909F07DFB13AE079B059A10
:109DF0001B78934221D1079B069A5B7893421CD132
:109E00003378012B19D00C23089A0CAD534328004A
:109E1000002221680B9309F08BFD21AA94460B9B2D
:109E2000634407CD07C301233370089B0133DBB2C2
:109E30000893049B0133DBB20493079B374A023338
:109E4000079301369342D1D164200CF0BCFA089BF1
:109E5000643F3FB2182B00D84BE71A0021A91AA87B
:109E600009F075FF6A461DAB23CB23C21B68136044
:109E70001A991B9A1C9B206809F042FDE568002D89
:109E80000CD0274912A8FFF75BF91C2328001AAA57
:109E900012A90AF090FC12A809F02EFAA0680AF0A4
:109EA000D7F811A912A8A56809F0EFFA00221D4BF6
:109EB000009212A901932800130000F019FA12A8C9
:109EC00009F0D6FAFA2080000CF07DFAA0680AF0BA
:109ED000BFF80A99A06800F0FDFA11A809F0C8FAC5
:109EE00010A809F0C5FA6DB0F0BC08BC02B0184764
:109EF000002F03D0049B0F2B00D014E7A06800F0C4
:109F0000B3F910E7F17302008C3C0000D18AFFFF27
:109F10003674020058FDFFFF4B7402007D7402008E
:109F2000E6730200DC050000F0B5040085B0637A3A
:109F30009C46002B04D1200009F027FF05B0F0BD9E
:109F4000A37A266F01931023019AF35600259B18DC
:109F500001229A402900F36803920293029BAB42CC
:109F600031DDB068019B6843C01873694000E77A2F
:109F70001A181B5C5078E279012F14D1571E3F1A32
:109F800018003B004243606F52008218D218937948
:109F9000634500DD6346627B1A4202D00123AB4079
:109FA00019430135DAE7022F07D0032FEAD1277AC8
:109FB000013FFF1A03003800E4E7571EFB1A277A17
:109FC000013F381ADEE71123C943F356606C99400C
:109FD00023691940039B19430CF0B5FAA27B072AA9
:109FE000ACD8637B0C495B006373531CDBB29000FD
:109FF0004158A373022A03D808000CF0D9F996E758
:10A00000064B2000236300236363054BE462236453
:10A0100014300CF0A0F891E744670200299F01007A
:10A02000753D020070B50400104B25000833036035
:10A03000FFF778F82000743009F01AFA2000603039
:10A0400009F016FA2000583009F056F92000503077
:10A0500009F052F9064B1435280063610CF06AF8D8
:10A06000280005F0DBFD200070BDC04664670200DB
:10A07000A06E0200F8B500250400324B858008333D
:10A0800003608571143016000F0005F0B1FD20004B
:10A090002D4BE562636125645030FFF78BF820009B
:10A0A0005830FFF787F820006030FFF7B1F8200044
:10A0B0000423F25E33682667590009B2743009F050
:10A0C00004FA3368226FE371736801262372102348
:10A0D0006581A7802561D35691685918994204DD9E
:10A0E0003000984001330543F8E711230120D3568F
:10A0F000D1685918994206DD02009A402669013359
:10A1000032432261F6E714200CF089FA226900211B
:10A110002A430123060005F0F7FFFF2322006372A4
:10A120000133A381002348326664A37320001370B7
:10A13000A366FEF7D9FF0123A27920001343A37180
:10A14000F8BDC04664670200B46E0200F0B5437A01
:10A15000040085B0002B04D1200009F016FE05B0E4
:10A16000F0BD837A066F01931023019AF356002500
:10A170009B18012294469A402900F36803920293A7
:10A18000029BAB422DDDB068019B6843C018736928
:10A190004000E77A1A181B5C5078E279012F10D141
:10A1A000571E3F1A18003B004243606F520082184E
:10A1B000D2189379002B02D06346AB401943013586
:10A1C000DEE7022F07D0032FEED1277A013FFF1AD7
:10A1D00003003800E8E7571EFB1A277A013F381AB8
:10A1E000E2E71123C943F356606C99402369194093
:10A1F000039B19430CF0A7F9667AB31EDBB2FC2B64
:10A2000014D8FEF71FFF0C4B0500236300230B48F7
:10A2100063630B4BFF217043E462236406F00CFB85
:10A2200029004143200014300BF095FF637A012B85
:10A2300000D994E790E7C0468B3D0200B6030000CA
:10A24000753D02001FB5012381881A00684609F098
:10A25000ECF8012368461A00024909F0E6F805B057
:10A2600000BDC046FE0300001FB5030048331A7846
:10A270000400002A0DD000221A70012381881A00E0
:10A28000684609F0D2F8012368461A00034909F02C
:10A29000CCF82000743009F00FF91FBDFF03000057
:10A2A00010B50400230048331A78002A07D01B7821
:10A2B000012B04D00121024808F023FFF2E710BD72
:10A2C000FF03000010B501210400072008F019FF6A
:10A2D000064B984208D148342378002B04D02378C9
:10A2E000012B01D020BFF7E710BDC04616FCFFFFD1
:10A2F00073B5079C0500002C1CDB0600483630783F
:10A30000002802D03078012816D106981BB2C0B2BE
:10A310000090280012B2743009F0E4F8002C07D045
:10A320002B004A331C80002407234C352C803370CB
:10A33000200076BD014CFBE7014CF9E717FCFFFF5D
:10A3400012FCFFFFF0B587B00D9C05000E00170052
:10A350000393002C21DBFFF7A3FF2B0048331B786E
:10A36000DAB20292002B1AD1310005A809F08DF85B
:10A370000C9B3A0000932800039B019405A9FFF76A
:10A38000B7FF05A809F074F8002C03D02800FFF7E8
:10A3900099FF029C200007B0F0BD024CFAE7024C86
:10A3A000F8E7C04617FCFFFF11FCFFFFF8B50400FB
:10A3B000171E1DDD060048363378002B02D0337897
:10A3C000012B17D12200E3795632013B1370230091
:10A3D0000025200054331D80503008F0EAFF230090
:10A3E0004A331F80022328004C3425803370F8BD87
:10A3F0000148FCE70148FAE717FCFFFF12FCFFFFEA
:10A40000F8B50400171E2DDD060048363278002A04
:10A4100002D03278012A27D15D42069BFF331FD13B
:10A420006B1D22001BB264321380230020006633B0
:10A430001D70603009F031F8230000226C331A706F
:10A44000954200D03D0023004A331D80079B002029
:10A450005A1E9341013F4C34053327803370F8BDB9
:10A46000069BDEE70148FAE70148F8E717FCFFFF23
:10A4700012FCFFFFF0B504000F0016001D0087B0AE
:10A48000002A1FDDFFF70CFF230048331B78DAB2E8
:10A490000392002B18D1390005A808F0F6FF0D9B98
:10A4A000320001930C9B05A9009320002B00FFF7BD
:10A4B000A7FF05A808F0DCFF2000FFF703FF0398C3
:10A4C00007B0F0BD0148FBE70148F9E717FCFFFFC3
:10A4D00011FCFFFFFF2902D841720020704701489C
:10A4E000FCE7C04617FCFFFF13B5040004A8007882
:10A4F000009020000BF04DFD002801D1207516BD05
:10A500000048FCE70EFCFFFF13B5040004A8007828
:10A51000009020000BF025FD002801D1207516BD0C
:10A520000048FCE70EFCFFFF7FB50D0011000F2275
:10A530006A4404001E1E117015D0089B002B12DD0A
:10A54000012329000093FFF7DFFF002808D10090C6
:10A55000320029002000089BFFF7C6FF002800D02A
:10A56000024804B070BD0248FBE7C0460EFCFFFF86
:10A5700017FCFFFFF7B506000D1E3ED00023022793
:10A5800004690193002C34D0AA88A38853403B422D
:10A590002DD13A4222D1A368AA68934227D12B88B1
:10A5A000002B02D022889A4221D16B88002B02D046
:10A5B00062889A421BD1EB68E268934201D0002B7B
:10A5C00015D17368002B01D020009847A2880C4B4E
:10A5D0001343A380019B0133019308E0A968A0689D
:10A5E0000AF0FFFB0028DAD1AB883B42D3D0E46A03
:10A5F000C8E7019B2000002B00DC0248FEBDC046DE
:10A600000080FFFF17FCFFFFF0B506000D0085B0CE
:10A6100000295DD001270469002C27D00221AA88D7
:10A6200000230A4202D0A3885B083B4022682968C5
:10A630008A4215D1A068A968002B0FD00AF0D1FB7F
:10A6400000280DD0EB68E268934209D10421625ED4
:10A65000A388002A06DB1F4805B0F0BD8842F1D070
:10A66000E46AD9E75B045B0CA380F4E730692A88CD
:10A670000100031E07D1356101236846164908F021
:10A68000D4FE0020E8E71C88944206D2DC6A190058
:10A69000002C0DD02300F6E723001C88944207D13C
:10A6A0005F886C88A74203D8DC6A1900002CF3D1BC
:10A6B000884209D10B889A4204D305D148886B8817
:10A6C000984201D9E962D6E7CB6AEB62CD62D3E763
:10A6D0000248C1E716FCFFFFFD03000017FCFFFF67
:10A6E000064B10B51A00040008322C330260836058
:10A6F0000830FEF77DFA200010BDC0467C670200DE
:10A7000008B4024B9C46083808BC6047E1A601002B
:10A7100008B4024B9C46083808BC6047C741020099
:10A720000C4A002311002C32083110B5436083819C
:10A7300083738260036143618361838301600400EA
:10A740000830FEF747FA044B1A68002A00D11C6053
:10A75000200010BD7C6702000C25002082B0F7B5F8
:10A760000125402609930CAB1B78046908920193DC
:10A77000002C38D008AA238812889A4201D0002BD6
:10A7800029D108AA638852889A4201D0002B22D18D
:10A79000FEF784F90123002806D0C022A3881340C5
:10A7A000C03B5A425341DBB2019A934219D1042271
:10A7B000A35EA788002B14DB102208A9A01807F0BD
:10A7C0006BFA374209D1FEF769F9002805D021005C
:10A7D0000748FEF705FBE46ACAE7200009F0FCFC25
:10A7E000F9E70025F7E72800FEBC08BC02B01847CF
:10A7F000D941020008B4024B9C46083808BC6047A7
:10A800007543020010B5024808F005FE10BDC046B1
:10A81000B8200020F0B587B001930EAB1B8806006E
:10A8200003930D9B0D000093019B0C9F0292002B44
:10A830003DD0002F02D1009BDB0738D530200BF034
:10A84000EEFE0400103008F0E6FD2000243008F091
:10A850007AFC029B1820258063800BF0E0FE050047
:10A86000009B08220593019B002103600C30049794
:10A8700007F0BAFA082204A9281D07F00DFA0D4BBB
:10A8800002226B6100230399E3602362E362336871
:10A890000A43300021005B68A560A2809847002829
:10A8A00005D0200008F0DCFC20000BF0B0FE07B063
:10A8B000F0BDC046C3430200F0B5160000258380FA
:10A8C000164A174B040085710260018146810573A9
:10A8D00018688C4689B0A8421DD0124A059504928A
:10A8E000C02202926A4604AB82CB82C223002A00B5
:10A8F0006146FFF78FFFC022094B0A491868029290
:10A900006A46069106AB079582CB82C223002A00D5
:10A910003100FFF77FFF200009B0F0BDC0670200E3
:10A920000C250020ED44020030B500240373012300
:10A93000034D84710560818082734373846030BDF0
:10A94000BC66020070B583790400DB0704D580681B
:10A95000002801D00BF05BFEA3799B0704D5A0680B
:10A96000002801D00BF053FEA3795B0709D5A02383
:10A970000021154AA068DB00D150884201D00BF0BD
:10A9800046FEA3791B0708D5A568002D05D0280031
:10A990000AF097FA28000BF03AFEA379DB0605D5FA
:10A9A000A068002802D00368DB6898476023A2797A
:10A9B0001A4205D0A068002802D003685B68984757
:10A9C0000023A360A37170BD00700040F7B501269D
:10A9D000037B040033422CD082796123110019409B
:10A9E00001911A4216D1FFF7ADFF18200BF017FEA8
:10A9F0000E230500E356677B18220199009307F0A8
:10AA0000F3F93A00280000990BF046FCA379A56001
:10AA10003343A3716023A279A0681A4202D00BF0DD
:10AA2000D9FAFEBD436940681B681840431E98412F
:10AA3000F7E70148F5E7C04616FCFFFF012210B515
:10AA400083794173134204D080680BF0C3FC00206B
:10AA500010BD6022134203D080680BF0C2FAF6E703
:10AA60000048F5E716FCFFFF70B5040000250C4B0D
:10AA70000E0008338580857103602100183009F0CD
:10AA8000E6FD20002100203009F004FE054B2000E7
:10AA9000A680E5802572E560256165611C6070BD5A
:10AAA000D0670200202500208379DB0702D5C16032
:10AAB000002070470048FCE716FCFFFF8379DB07A6
:10AAC00001D5C06870470148FCE7C04616FCFFFF8F
:10AAD00070B545690400002D22D0037A032B21D8DC
:10AAE000FFF7ECFFE86230200BF099FD30220021E7
:10AAF000050007F079F9002263699A62236993429D
:10AB000007D1636923610020237A656101332372D1
:10AB100070BD1A009B6A002BFBD163699362F2E758
:10AB20000148F5E70148F3E717FCFFFF13FCFFFFBF
:10AB3000144B70B55A68144C002A03D000225A6096
:10AB40000132A2601A69002A17D0002119618023FE
:10AB5000DB000E4DE3582868012B0FD1A923DB0041
:10AB6000E1584942FFF7A0FF2868FFF7B1FF2B68C3
:10AB70005A69074BE2500123A36070BDFFF794FFB1
:10AB8000F9E7C046FC1000400010004020250020DE
:10AB90000405000003000069002809D00221054ACD
:10ABA000D167826A1A611A7A013A1A72024B1960E5
:10ABB0007047C04604E100E000E100E010B5002964
:10ABC00003DB024B19600BF090FA10BD2425002026
:10ABD00070B504001D0004AB1E7804F0C5FF200012
:10ABE0000E4B40302360FEF7E5FA230022000135CA
:10ABF0004C331D700023E1215832013616700A3A99
:10AC0000A3646365138053809381D381013B20004B
:10AC100063644902FFF7D2FF200070BD6C6602003A
:10AC2000F7B580277F053E697C690822113C744393
:10AC300005002100684607F02FF8104B009A9A4251
:10AC400019D00093002301937969280013397143C7
:10AC500009F037FD019A2800009909F04AFD21000A
:10AC6000280009F02EFD796922001339280071436C
:10AC7000B30809F030FD0198FEBDC046FECA0000D1
:10AC8000F0B50D00ABB000210D920700302212A8E4
:10AC90001E0007F0A9F8280007F010FB431C0C93D6
:10ACA000102B00D9B8E0202E00D9B5E029003800DB
:10ACB00009F04CFD0B90002854D129000C9A12A8E1
:10ACC00006F0EAFF32000D9916A806F0E5FF802392
:10ACD0005B051A695D690B92113D6A4338005E6934
:10ACE0000D92FFF79DFF0D9B3022083300210400D9
:10ACF0001EA80F9307F078F831000B9B13395943C6
:10AD0000380009F0DEFC00230F9E0C930E930C9B81
:10AD1000A34246DA310030221EA806F0BDFF12A978
:10AD20001EA807F087FA00282BD13D4938002200E1
:10AD30001091119409F0DDFC6A46099615AB23CBFE
:10AD400023C223CB23C223CB23C23800149B1299E6
:10AD5000139A09F0DCFC01230E930C9B303601336F
:10AD60000C93D4E70B9832000D99103006F070FF69
:10AD700004000B980BF04BFC002C9ED120002BB054
:10AD8000F0BD6A46099621AB23CB23C223CB23C255
:10AD900023CB23C238001E991F9A209B09F0B7FCD1
:10ADA000DBE7E6433021F61726404E430F9B9E1902
:10ADB0000E9B002B1CD10B9B981E05F0B3FCA042F0
:10ADC0002CD017490134380022001091119409F059
:10ADD00090FC6A46099615AB23CB23C223CB23C232
:10ADE00023CB23C238001299139A149B09F08FFCCD
:10ADF00038000D9909F065FC80235B0559690C2327
:10AE00000B9A133963434A433800110002330D9AF9
:10AE100009F061FC0024B1E7024CAFE7024CADE75A
:10AE2000FECA000017FCFFFF13FCFFFF8023F0B5F4
:10AE30005B051A6995B002925A6905910299113A17
:10AE400051435C69029B133C05005C430391FFF78F
:10AE5000E7FE061E3CD030220021083408A8039FDC
:10AE600006F0C2FF2100280009F02BFC0023083760
:10AE700001930493019BB34220DA3900302208A8E1
:10AE800006F00AFF059908A807F0D4F900280DD1AB
:10AE90001B49721E28000691079209F02AFC012323
:10AEA0000493019B303701330193E3E722000C2325
:10AEB0003900280009F00FFC3034F2E7049B002B26
:10AEC00008D10F49320028000691079609F011FCBD
:10AED0000C4812E02800039909F0F3FB80235B057E
:10AEE00059690C23029A13394A437343110028000D
:10AEF000039A023309F0EFFB002015B0F0BDC04605
:10AF0000FECA00000CFCFFFF70B50400A280FA220C
:10AF1000002308000C49920008312160A3710B49FD
:10AF20006061E260A360638209F010FC051E09D035
:10AF30000100200002221031123006F0ADFE280080
:10AF40000BF065FB200070BDE86702007D74020015
:10AF5000064A002308320260FA229200837143619C
:10AF60008180C260836043827047C046E867020008
:10AF700030B502258379040087B02B4204D1FDF758
:10AF800029FEA3791D43A571200009F01EFC0028AD
:10AF90001CD06B46DD1C280009F015FC2B78002B1B
:10AFA00017D001A809F00DFC0321019AD3170B401B
:10AFB0009B189B102382FEF77FF8E368A18818187E
:10AFC0000123A0601A0002A808F02FFA002007B0A1
:10AFD00030BD0122064B1A60064A51680029FCD098
:10AFE00000215160044A1268019201225A60DBE795
:10AFF00000C00040FCC0004008C50040022802D14B
:10B000000122014B1A707047AB29002070B5064D24
:10B0100004002B78002B04D1044802F0A9FA012384
:10B020002B70200070BDC046AC290020FDAF010090
:10B0300070B50C0007F0F8FF002810D00023134D66
:10B04000A40A2B70200009F0DEFB002803D00A20A0
:10B050000BF0B9F9F6E72B78002BFCD070BD02217C
:10B060000B4B0C4A99508021C90058580028FCD03D
:10B07000A120C0001C5058580028FCD00021995035
:10B080008021C9005A58002AFCD0E7E7AB290020EC
:10B0900000E0014004050000F8B50D0016001F0097
:10B0A00007F0C2FF002811D00023184C23703A008B
:10B0B0003100280009F0A5FB002803D00A200BF07E
:10B0C00082F9F4E72378002BFCD0F8BD012380221D
:10B0D0000F4C1049D2006350A358002BFCD08022A3
:10B0E000D200002394469F4208DD980032582A502F
:10B0F0006246A0580028FBD00133F4E700236350D8
:10B100006346E358002BFBD0DFE7C046AB290020A5
:10B1100000E001400405000008B4024B9C4644389E
:10B1200008BC60470B480200FA21F8B50389C90042
:10B1300004005943324809F069FEFA21890005F0FC
:10B14000F1FA304FA17A2081380009F05FFE230028
:10B150002600250022894C33A072A0361A808C3537
:10B1600000232A223178286808F07FFF002844D184
:10B170001F235B223178286808F077FF00283CD134
:10B1800020235C223178286808F06FFF002834D132
:10B1900001232C223178286808F067FF00282CD181
:10B1A00001232D223178286808F05FFF002824D180
:10B1B00001232E223178286808F057FF00281CD17F
:10B1C000A17A380009F01DFE0E22C3B2317828683A
:10B1D00008F04BFF002810D1FA2123898900594338
:10B1E000074809F00EFE012303432A22317828681C
:10B1F000DBB208F03AFF002800D00348F8BDC04693
:10B2000008680200006802000EFCFFFF08B4024B51
:10B210009C46443808BC604729B10100074B10B573
:10B220001A00040008323C3302604364443008F0E2
:10B2300023FB200008F04CFA200010BD68680200D3
:10B2400008B4024B9C46443808BC60471DB201005C
:10B2500008B4024B9C46443808BC604715480200BD
:10B26000F0B50425837904008BB02B4204D1FDF79F
:10B27000B1FCA3791D43A57120009030FFF7A6FB18
:10B280000026B0420FD12300A033197820000C23F0
:10B2900007AD00938C302B0001220068FFF744F9C2
:10B2A000061E03D02C4E30000BB0F0BD0A2304AABA
:10B2B0009B182A785A706A781A700022985EAA78C9
:10B2C0005A70EA781A700022995E03912A795A70AE
:10B2D0006A791A7000229F5EAA795A70EA791A7008
:10B2E00000215A5E04922A7A5A706A7A1A700021F2
:10B2F0005A5E0592AA7A5A70EA7A1F251A700022BD
:10B300009B5EA27A03999C46514349425043CB1716
:10B310002B405B185B11A361C3172B4018186423E3
:10B320005743FA171540ED196A112262059A5B42DC
:10B330005343A36764236146049A40115A434B4325
:10B34000E267221DE0612000D36708F03AFA20008E
:10B35000443008F098FAA6E70EFCFFFF08B4024B51
:10B360009C46443808BC604761B20100F7B51E0036
:10B37000040008AB1B881500019309AB1A880091E3
:10B380000AAB31001F88FEF7C5F820003A003100F3
:10B390004430FEF719FB134B20001A003C33636462
:10B3A000230008322260009A8C331A60AB889030F8
:10B3B0008380AB7983710C4BAA6803600E23EB5634
:10B3C00082602200A9899C32118083732300019A34
:10B3D000A03303211A80FFF731FB2000FFF7A4FE02
:10B3E0002000FEBD68680200BC660200F8B5FA26BF
:10B3F0000189B60004007143254809F007FD3100BA
:10B4000005F090F9234FA17A2081380009F0FEFC65
:10B410002500A072583500232A222978606C08F094
:10B4200024FE002832D110232B222978606C08F0EA
:10B430001CFE00282AD101232D222978606C08F0F7
:10B4400014FE002822D101232E222978606C08F0F6
:10B450000CFE00281AD1A17A380009F0D2FC0E2285
:10B46000C3B22978606C08F000FE00280ED1218953
:10B470000748714309F0C5FC012303432A222978B8
:10B48000606CDBB208F0F1FD002800D00248F8BD86
:10B49000D0680200C86802000EFCFFFF10B504006F
:10B4A000034B0833036008F013F9200010BDC046B9
:10B4B000306902007FB50425837904002B4204D152
:10B4C000FDF788FBA3791D43A57120004830FFF7E5
:10B4D0007DFA0025A8420DD12300583319780623A0
:10B4E00002AE009301223300606CFFF71DF8051EC9
:10B4F00003D00D4D280004B070BD002104200222AD
:10B50000A37A30567156B25659435A434343DB002F
:10B510002362D20023685242C90020009B6AA261C4
:10B52000E1619847E6E7C0460EFCFFFFF8B504006E
:10B530000F00190006AB1E8807AB15001A88FDF72F
:10B54000E9FF0F4B6764083323602300AA88483360
:10B550009A80AA799A710B4AA968A2640E22AA5607
:10B5600021652100A889543108809A730023A371B2
:10B57000230058331E802000FFF738FF2000F8BD5D
:10B5800030690200BC66020010B50400034B0833AA
:10B59000036008F071F9200010BDC046C4690200C4
:10B5A000F0B507005C370023040010223978806C66
:10B5B00087B008F05AFD214D03002800002B3BD135
:10B5C0000F2602ABF6180123397808220093A06CED
:10B5D0003300FEF7A9FFA8422DD00322337813428F
:10B5E00003D06420FDF794FBEAE7FA262189144D85
:10B5F000B6007143280009F009FC310005F092F80B
:10B600002081A02311223978A06C08F02EFD00289B
:10B6100011D1A36C21890393714328003F7809F06D
:10B62000F0FB01231843C3B210223900039808F03D
:10B630001CFD002800D0014807B0F0BD0EFCFFFF44
:10B640006469020070B508258379040086B02B4236
:10B6500004D1FDF7BFFAA3791D43A57120004C303A
:10B66000FFF7B4F9051E0DD023005C3319780623CB
:10B6700004AE009301223300A06CFEF755FF051EB7
:10B6800003D0134D280006B070BD0E2332786B44F2
:10B690005A70727820001A700022995E64224A4320
:10B6A000A263B2785A70F2781A700022995E64220E
:10B6B0005242514361633179597071791970002197
:10B6C0005B5E5A432368E2631B6A9847DAE7C04629
:10B6D0000EFCFFFFF8B504000F00190006AB1E8832
:10B6E00007AB15001A88FEF76FF90D4BA7640833F6
:10B6F00023602300AA884C339A80AA799A71094A58
:10B70000A968E2640E22AA5661652100A889583111
:10B7100008801E8220009A73FFF742FF2000F8BDC8
:10B72000C4690200BC660200F0B5FA250189234F06
:10B73000AD0085B004006943380009F067FB2900BB
:10B7400004F0F0FF1E4EA17A2081300009F05EFB6C
:10B75000636CA072029323005833218901931B78F4
:10B7600069433800039309F04CFB0723034320226D
:10B7700003990298DBB208F078FC00281AD1019BEB
:10B7800022221978606C102308F06FFC002811D178
:10B79000019BA17A30001F78656C09F032FB802391
:10B7A0005B420343232239002800DBB208F05DFC32
:10B7B000002800D0034805B0F0BDC046F86902007B
:10B7C000F06902000EFCFFFF10B50400034B0833C4
:10B7D000036007F07DFF200010BDC046686A0200CC
:10B7E000F0B504258379040085B02B4204D1FDF720
:10B7F000F1F9A3791D43A57120004830FFF7E6F861
:10B80000051E0DD0230058331978062302AE00938D
:10B81000A8223300606CFEF787FE051E03D0144D8E
:10B82000280005B0F0BD1F200023F25ED3170340AF
:10B830009B180222B15E5B11CA1702405218042104
:10B84000775E3380F9170140A07A52114343C9193A
:10B85000728049114243B18041435B42E3612368F6
:10B86000524220009B6AA26121629847D8E7C046F5
:10B870000EFCFFFFF8B504000F00190006AB1E8890
:10B8800007AB15001A88FDF745FE0F4B67640833B8
:10B8900023602300AA8848339A80AA799A710B4AB8
:10B8A000A968A2640E22AA5621652100A8895431F4
:10B8B00008809A730023A371230058331E80200050
:10B8C000FFF732FF2000F8BD686A0200BC66020084
:10B8D000F7B5FA2504000189134EAD006943300025
:10B8E00009F094FA290004F01DFF2700A36C2081C1
:10B8F00000935C373B7881B269433000019309F0D3
:10B9000080FA6022C3B20199009808F0AEFB0028CB
:10B9100007D1012362223978A06C08F0A6FB002829
:10B9200000D00248FEBDC0469C6A02000EFCFFFF2C
:10B9300010B50400034B0833036007F09DFF20009F
:10B9400010BDC046C46A02007FB508258379040093
:10B950002B4204D1FDF73EF9A3791D43A5712000C8
:10B960004C30FFF733F8051E0DD023005C331978F7
:10B97000062302AE0093E8223300A06CFEF7D4FD4C
:10B98000051E03D00B4D280004B070BD0223F25EEB
:10B9900096235B425A4362630021725E2000534348
:10B9A000A3630423F25E96235343E36323681B6A75
:10B9B0009847E8E70EFCFFFFF8B504000F001900F8
:10B9C00006AB1E8807AB15001A88FDF7FDFF0D4B6F
:10B9D000A764083323602300AA884C339A80AA798D
:10B9E0009A71094AA968E2640E22AA56616521008B
:10B9F000A889583108801E8220009A73FFF768FFDB
:10BA00002000F8BDC46A0200BC66020010B5040044
:10BA1000054B083303601C3007F06EFC2000183023
:10BA200007F06AFC200010BDF06A0200FF23F0B5A9
:10BA30002C4E8DB0337000230400694600880093BB
:10BA400003F0E2F8002802D16B469B783370264D54
:10BA50002B68DB68002B07D1002320881A0019000F
:10BA600008F048FF0DB0F0BD3378032BF4D81F4920
:10BA700001A8FDF765FB2B6801A9DD6804A807F0A4
:10BA800090FC280004A908F090FE0027050004A8F7
:10BA900007F032FCBD421ED029002022103104A83C
:10BAA00006F0FAF828000AF0B2FD317804ABC900BC
:10BAB0005918082202A806F0EFF80123082220886E
:10BAC00002A908F017FF0137002804D10C212088B3
:10BAD000074A08F00DFF01A807F00EFC002FBBD0AD
:10BAE000C0E7C04680200020342500208574020075
:10BAF000FFFF0000F0B58379040091B05B071BD510
:10BB0000FDF7DAFA00232269801A9941994203D19C
:10BB1000F533FF3398420FD3A068002808D0354B87
:10BB20001D8801F0FFF80368152229001B6A984759
:10BB30000422A3799343A371A3799B0758D52E4E72
:10BB40003368DB68002B4FD02C4F3B78032B4BD84E
:10BB5000284B2B491B8804A80193FDF7F1FA3368A1
:10BB600004A9DD6808A807F01CFC08A9280008F053
:10BB70001CFE050008A807F0BFFB082302AAD3801B
:10BB80000198073B063206A908F0B6FE002D08D042
:10BB900029002022103108A806F07EF828000AF0BB
:10BBA00036FD3D7802ABDA88ED0008AB5D19280060
:10BBB00006A906F04DF8002813D00822280006A98F
:10BBC00006F06AF8336804A9DD6805A807F0E9FB08
:10BBD0002023280008AA05A908F0EDFD05A807F014
:10BBE0008BFB04A807F088FB0222A3799343A3717F
:10BBF00011B0F0BD54290020342500208020002001
:10BC000085740200F0B50400150085B001930AABFD
:10BC10001F880BAB1B78461C02930EAB1B781022BF
:10BC200003930B7803704B8A01314382300006F096
:10BC300033F8656100250122019B27836383039B01
:10BC4000E5832377029B2000F377A31CDA770C9B14
:10BC50000C26636223000D9A283329001A705D7048
:10BC600032009D702C3006F0BFF82000064B3200E9
:10BC7000A3632900E563403006F0B6F82000034BCB
:10BC80002565E36405B0F0BD0F49020001490200DB
:10BC900070B50D0001F046F804000368002D09D1CD
:10BCA0005B699847FA2080006843074904F03AFD31
:10BCB000E08070BD9B6898478542F3D223682000DE
:10BCC0009B6898470500EDE771020000F0B507009A
:10BCD0001500A1B002C706006B4918A81C0008F0A7
:10BCE0000EFF2B1E03D0280006F0E8FA83B20122D3
:10BCF00004920022039202920232019200932A00DF
:10BD000018A93800FFF77EFF33006049583318A8A0
:10BD1000079308F0F4FE231E03D0200006F0CEFAAD
:10BD200083B2012204920022039202920232019213
:10BD30000093220018A90798FFF764FF33005449C5
:10BD4000AC3318A8089308F0DAFE269B002B03D02A
:10BD5000180006F0B3FA83B2012204920022039283
:10BD60000292023201920093269A18A90898FFF7CE
:10BD700049FF731CFF33474918A8099308F0BFFE19
:10BD8000279B002B03D0180006F098FA83B20122FB
:10BD900004920022701C03920292023201920093DC
:10BDA000279A18A9FF30FFF72DFF33005533FF33D3
:10BDB000394918A8099308F0A2FE289B002B03D04C
:10BDC000180006F07BFA83B201220492002203924B
:10BDD0000292023201920093289A18A90998FFF75B
:10BDE00011FF3300A933FF332C4918A80A9308F038
:10BDF00086FE299B002B03D0180006F05FFA83B261
:10BE000001220492002218AC0392029202320192A3
:10BE100000932100299A0A98FFF7F4FE204B1B7823
:10BE20000B93002B2DD1079B1E491393089B0DA844
:10BE30001493731CFF331593099B129716930A9B57
:10BE400012AD179308F05BFE1D21492006AB1B7F46
:10BE50001022237006ABDB8D638206ABC918C018B5
:10BE600005F01AFF062323750B9B1E953068A383EC
:10BE700000F068FF036821001B6898470122084B07
:10BE80001A70300021B0F0BD292A0000242A0000D9
:10BE9000252A0000272A0000262A0000282A000060
:10BEA000AD2900200A18000070B5002504000B4BD6
:10BEB0008580083385710360C1601830FDF77AF919
:10BEC00020001C30FDF776F90123621CD377044A69
:10BED0002000A56065611460A37170BDF06A020066
:10BEE00034250020FA2130B585B004000123022258
:10BEF0006846890007F099FA074D2868002809D09C
:10BF000008F009FE2188054B2A68198002239179DF
:10BF10000B43937105B030BD342500205429002017
:10BF200010B50C0007290FD8806800F0FBFE074B06
:10BF3000195703685B6C984743425841044B404291
:10BF40001840044BC01810BD0348FCE70F760200F0
:10BF5000EA03000016FCFFFF17FCFFFFF0B5A04C42
:10BF60000D00A544040007939AAB1B789D4909A8CE
:10BF700004930692FDF7E4F8200029001C3007F036
:10BF800018FAC020800001F0E9FA08200AF047FB07
:10BF9000060000210EAF08F0B1FF15AD0C22002104
:10BFA000A660380005F020FF2B0007CF07C38E4B9B
:10BFB0002900EB60002330002B6108F088FFA068A7
:10BFC00000F0B0FE08220021059016A805F00CFF35
:10BFD00014200AF024FB854B2A0015930300C2CAE3
:10BFE000C2C3834B059EC3600023A0360361736800
:10BFF000002B00D0EEE07060A06800F0A3FE0822E5
:10C000000021060016A805F0EFFE14200AF007FB39
:10C01000784B1593030086CD86C3774BC36000230E
:10C020000361336B002B00D0D6E03063A06800F0D2
:10C0300079FE08220021059016A805F0D5FE1420EF
:10C040000AF0EDFA6D4B15AD15932A000300C2CA34
:10C05000C2C36B4B059EC3600023943603617368B3
:10C06000002B00D0BAE07060012604AB1B7C04AA50
:10C07000334308A93000137408F040FCA06800F0B6
:10C0800071FE03685F495B6A9847A06800F06AFE2A
:10C0900003685D499B699847A06800F063FE002330
:10C0A00002680093176804993200B847049B002B7C
:10C0B0000AD0200008F038FD032805DDA06800F054
:10C0C00051FE0368DB68984700260EAFB8190736A3
:10C0D00008F066FC1C2EF8D1183E04ABA0685E7711
:10C0E0000A9700F03FFE03680AA91B699847A068F9
:10C0F00000F018FE03680AA95B6D9847A06800F07D
:10C1000011FE03680021DB6D9847A06800F00AFE6D
:10C11000036802219B6D984700212000FFF700FF74
:10C1200018200AF07CFAA16800F054FA374B384A1C
:10C130001B68A1680393374B28001B6800250293F6
:10C14000354B1B680193069B1B689B190093334B6F
:10C1500012681B68FFF7BAFD30200AF060FA079AF0
:10C16000A16800F0F9FAA06800F0DCFD03680CA9F2
:10C170009B6A9847082304AA1384A068DB18538499
:10C18000958400F0CFFD03680CA9DB6A9847310065
:10C19000A06808F087FC099A09219378A068921991
:10C1A00008F093FCA06800F0BDFD32210571A06885
:10C1B000FFF76EFD04AB1B7FAB4204D0A06800F01C
:10C1C000B1FD08F0E3FB09A807F096F895239B0062
:10C1D0009D44F0BD03610EE7036126E7036142E77A
:10C1E000ACFDFFFF917402001D490200E5BE010095
:10C1F0002B4902002DBA01003949020067490200AB
:10C200004749020021C2010055C20100302500202B
:10C210002C25002008200020282500200C200020AC
:10C2200013B506226846FCF79BFF094B1C68002CDF
:10C230000AD0694601A807F0B4F8200001A908F067
:10C240008DFC01A807F058F8684607F055F813BDB3
:10C2500034250020002373B501AE0C003100050029
:10C26000019302F0D1FC002802D1B278064B1A707B
:10C27000064B1868002806D0054B1D8063425C41C0
:10C28000E1B208F073FC73BD80200020342500204B
:10C290005429002030B5284CA9B06A220D000DA801
:10C2A000210005F0F9FC0DA903A8FCF7B7FF03A9CD
:10C2B00006A807F0EAF801230193013BFF3B009336
:10C2C0000533FF33642206A92800FEF7D3F806A839
:10C2D00007F0CEF8210019226A3106A805F0DCFC2F
:10C2E00005220024110006AB04A807F0F5F804A904
:10C2F00005A807F0CAF82300220028000194009442
:10C3000005A9FEF71FF805A807F0B2F821002800DC
:10C31000FEF7E0F805340520FCF7FAFCFF2CF5D118
:10C32000FA208000FCF7F4FC04A807F0A1F803A8A9
:10C3300007F09EF829B030BD8C750200F0B59C4B1B
:10C3400095B005921A68082304000F00D16C06A866
:10C350000B43D3649749FCF7F3FE974907A8FCF712
:10C36000EFFE220000250DAE30001C3206A907F0BA
:10C370002FF8310007AA08A807F02AF8300006F0C5
:10C38000BBFF631CDD77A06800F0CCFC03685B6931
:10C3900098477019073508F003FB1C2DF9D180234D
:10C3A0000BADDB00AB80A0680B9600F0BBFC036814
:10C3B00029005B6D9847A06800F0B4FC0368002179
:10C3C0009B6D9847A06800F0ADFC030000250600B7
:10C3D0000A331F2200211800039305F005FD039B7B
:10C3E0003000DD7708F0C9FA0621A06808F05AFB92
:10C3F000089A09219378A068043208F066FBA068C7
:10C4000000F090FCC8210571A068FFF741FCA0680E
:10C4100000F088FC0581A06800F084FC08F0B6FA02
:10C420003800FDF721FF2000FCF7D4FB3900200085
:10C43000FFF730FF3900200008F0ABFBFF23049525
:10C4400003936269012316001E401A4232D05B49F1
:10C4500009A8FCF75DFF09A90AA807F016F8002251
:10C460000AA91300019200923800FDF76BFF0AA899
:10C4700006F0FEFF049B002B47D1039B043B039374
:10C48000039B282B44DC380007F0E2FD039B002BC4
:10C4900000DC0496059807F0DBF9002806D001239C
:10C4A00062699A43130004221343636109A806F0EA
:10C4B000DFFF002504226369134234D0FF213800D6
:10C4C000C826FEF707F80025B600A36902229B5E86
:10C4D000AB4223DD200029B2183006F08FFF002385
:10C4E000010038001A007430FCF762FF3000FCF7DE
:10C4F0000FFC380007F0ACFDC820FCF709FC022255
:10C50000636913420AD10135DFE7039B0433B6E7C1
:10C51000039BFE2BBEDD00230493BBE7FA208000C3
:10C52000FCF7F6FB00250222636913421ED01E00B1
:10C5300006321640134224D0214909A8FCF7E8FE30
:10C5400009A90AA806F0A1FF00220AA91300019276
:10C5500000923800FDF7F6FE0AA806F089FF194898
:10C56000FCF7D6FB09A806F083FF174D6420FCF703
:10C57000CFFB164B01359D4200DC62E706F066FDFD
:10C580005FE7134909A8FCF7C3FE09A90AA806F04A
:10C590007CFF330032000AA9380001960096FDF7AF
:10C5A000D1FE0AA806F064FF09A806F061FFDDE7E6
:10C5B000B82400209F740200AF740200B17402001E
:10C5C000F6740200983A00008C0A00008B0A000002
:10C5D000337502005A4BF0B50833036081600400E4
:10C5E0002520A9B002AB10220391C018002105F04C
:10C5F000FBFB0BAE01233200524833700E33195C43
:10C6000001321170013BFAD2312202ABD2185378B9
:10C6100011781B020B43252113AD22006B8202AB64
:10C62000C91845230C32029202A832781B18180050
:10C630002A70102205F030FB029B642118930A2314
:10C640000026012702AA521813705B1802AA9B1831
:10C6500031000C221E702F77EE832E851EA81997AD
:10C660001C9605F0C1FB384B0C22310023A8219306
:10C67000229605F0B9FB354B02AA269346239B1858
:10C6800003221120DA7702AB0D32C0183100267375
:10C690002796059505F0A8FB02AB1F740F232C48C5
:10C6A00006AA195C01321170013BFAD21D2202ABBD
:10C6B000D218537811781B020B432520112102AAAE
:10C6C0000BAD127C6B8202ABC9182A70C018102205
:10C6D00005F0E2FA012300272B7505AB11930398AF
:10C6E000AF8300F02FFB036829001B68984713AB4A
:10C6F000DB8BA068A38200F025FB03680097A18A6A
:10C70000029ADD680123A847A06800F01BFB060021
:10C71000142009F084FF012305000761082210C0DE
:10C7200006A90793069705F0B7FA0A4BEB60B369C1
:10C73000BB4203D12000B56129B0F0BD2B61F9E700
:10C74000086B0200177602000F490200014902003F
:10C7500027760200F34B0200F0B500240500774B6A
:10C76000D9B0083303608160C260754922008480BB
:10C77000847143A808F0FBFA2B0014330126042728
:10C7800006931223069A049601930097230043A967
:10C790000394029419A8FFF735FA2200694943A8C7
:10C7A00008F0E5FA0C232A00049610320193009752
:10C7B000230043A9039402942EA8FFF723FA220032
:10C7C000614911A808F0D3FA2A001C320792082206
:10C7D0002300049601920097079A11A903940294EA
:10C7E00043A8FFF70FFA2200584911A808F0BFFA32
:10C7F000542009F014FF06001220012304212A000E
:10C80000019011A8183204930091230001000394B1
:10C81000300002941700FFF7F5F930004C4B082266
:10C82000119311AB1900AE62F5623030129405F02D
:10C8300033FA484B0122B363330029331A703800AE
:10C84000079903322C61EC6105F026FA39000422C5
:10C85000069805F021FA5E22032302A95218D37725
:10C86000B2225218D3770A000732FF32D377B21CB4
:10C87000D37719AB08932EAB220037490993AC85C7
:10C8800043AB0CA80A930B9608F071FA28223C20BF
:10C8900002AB9B181B7802AA1218137002AB5B8FB5
:10C8A000123002AA12181380292302A95B1819005A
:10C8B000113802AB1022C01805F0EEF95022042105
:10C8C00002AB9B185822197002AB9B1808AF179740
:10C8D000A8681C8000F036FA036811A91B68984705
:10C8E0007A2202AB9B181B8854322B8402AB9B1814
:10C8F0001B885432AB8402AB9B181B88A8686B84DE
:10C9000000F020FA0700142009F089FE0600134BFE
:10C910000461082220C00CA90C930D9405F0BCF909
:10C920000F4BF360BB69A34206D12800BE61FCF740
:10C9300051F9280059B0F0BD3361F6E7146B0200DD
:10C9400057760200377602004776020067760200CB
:10C95000414D0200714C0200777602002DCA0100A1
:10C960009B4C0200F0B5040085B01F000CAB1B8887
:10C97000103001930E00150006F04DFD200024300C
:10C9800006F0E1FB26806580182009F048FE0826A5
:10C99000050032000AA902A805F07EF9280032003D
:10C9A00000212F600C3005F01FFA320002A9281D6B
:10C9B00005F072F9064B022220006B6100230199F9
:10C9C000A5600A43E360A2802362E36205B0F0BD84
:10C9D000C54C020070B5040092B0806800F092F976
:10C9E000826D0223110019401A421AD1A38D002B27
:10C9F00017D00D4AE5680492102202926A46A1857A
:10CA0000059104AB41CB41C20A00230006A8FFF701
:10CA1000A9FF2B6828009B6806A9984706A806F07E
:10CA20001FFC12B070BDC046054D0200F0B58DB0C0
:10CA300005904B88828C0E89CC689A420AD1032ECD
:10CA400038DD62882188012308A806F0EEFC043E48
:10CA50000434F4E7059A528C9A422BD1032E29DD37
:10CA6000059B3020DF682388069363880793124B69
:10CA700008930023099309F0D2FDC02302936B466B
:10CA8000050008AA03CA03C32800059B0699079A54
:10CA9000FFF768FF3B68290038005B68984700286B
:10CAA00005D0280006F0DCFB280009F0B0FD043EAC
:10CAB0000434D3E70DB0F0BD054D0200002815D0B9
:10CAC000006041608260C360046145618661C76146
:10CAD000444604624C464462544684625C46C462E6
:10CAE000644604636E46466374468463002A06D037
:10CAF000C46B043C043A25681560B442F9D18C6BD0
:10CB0000A6464E6BB546002B06D0CC6B043C043BCE
:10CB10001D682560B442F9D10C6BA446CC6AA346CB
:10CB20008C6AA2464C6AA1460C6AA046CF698E69FF
:10CB30004D690C69CB688A6808684968704700606D
:10CB400041608260C360046145618661C76144469B
:10CB500004624C464462544684625C46C462644645
:10CB600004636E46466374468463C46B043C0439B4
:10CB700025680D60B442F9D1C769866945690469C1
:10CB80007047006041608260C360046145618661F6
:10CB9000C761444604624C464462544684625C4623
:10CBA000C462644604636C464463744684630469E7
:10CBB0007047846BA646446BA546046BA446C46AC2
:10CBC000A346846AA246446AA146046AA046C7698D
:10CBD000866945690469C36882680068416870476E
:10CBE00010B5041E0CD005F069FB431EE318A342E8
:10CBF00008D922781978013B21705A700134F6E780
:10CC0000014810BD0020FCE717FCFFFFF0B585B020
:10CC10000D1E009029D000260A27C217141A4B1E99
:10CC2000544003932000029639000136019603F028
:10CC3000E9FECB17C9185940039B303120009955A4
:10CC4000390003F0F9FD041EECD1009B002B04DA3F
:10CC50002D23029E019A0236AB5400232800AB55C7
:10CC6000FFF7BEFF200005B0F0BD014CFAE7C0465B
:10CC700017FCFFFF0268084B406810B5C018C000E1
:10CC8000101803009A4205D81C688C4202D3180081
:10CC9000083BF7E710BDC046FFFFFF1F70B5064D0C
:10CCA00004002B68002B02D108F00DFB28602368DC
:10CCB0009B00EB58636070BD4825002070B50028CC
:10CCC0000ED10D4D2E68002E08D1083009F0A7FCBA
:10CCD000040006604660FFF7E1FF2C60286870BD25
:10CCE000064A0123116806480C001C401942F6D17F
:10CCF000036044601360F2E73C25002038250020E3
:10CD000040250020436810B50400002B02D10448E0
:10CD100009F08EFA606803681B69984710BDC04629
:10CD200087760200436810B50400002B02D1044846
:10CD300009F07EFA606803681B69984710BDC04619
:10CD400087760200436810B50400002B02D1044826
:10CD500009F06EFA606803689B69984710BDC04689
:10CD600087760200436810B50400002B02D1044806
:10CD700009F05EFA606803685B6A984710BDC046B8
:10CD80008776020000487047FFFF0000F0B597B0BB
:10CD90000593036807AC1B680491039311002300FB
:10CDA0000600A1C9A1C30025D36829000C220CA844
:10CDB0000A930B9505F018F835200B4B11AF0F9324
:10CDC00004AB29001022C01810953D7005F00CF836
:10CDD000059B7D822200009330000499039C0197FB
:10CDE0000CABA04717B0F0BD29500200FC3070B565
:10CDF000046C0500002C0DD1242009F010FC064B1A
:10CE000044608361054B8460C46004614461C46113
:10CE100003602864286C70BD006C0200E86C02009E
:10CE2000FC3070B5C56B0400002D11D1342009F021
:10CE3000F6FB084B85604360074B45610361074B78
:10CE40000562C361064BC5628362064BE063036003
:10CE5000E06B70BD306C0200206C0200906C020030
:10CE6000A06C0200B06C0200064B70B504000360B9
:10CE70004068002804D0056909F0C9FB2800F8E7DC
:10CE8000200070BD646B0200064B70B504000360A7
:10CE90004068002804D0056909F0B9FB2800F8E7CC
:10CEA000200070BD346B0200064B70B504000360B7
:10CEB0004068002804D0056909F0A9FB2800F8E7BC
:10CEC000200070BD446B0200064B70B50400036087
:10CED0004068002804D0056909F099FB2800F8E7AC
:10CEE000200070BD546B0200064B70B50400036057
:10CEF0004068002804D0056909F089FB2800F8E79C
:10CF0000200070BD006C0200064B70B50400036089
:10CF10004068002804D0056909F079FB2800F8E78B
:10CF2000200070BD506C0200064B70B50400036019
:10CF30004068002804D0056909F069FB2800F8E77B
:10CF4000200070BD106C0200064B70B50400036039
:10CF50004068002804D0056909F059FB2800F8E76B
:10CF6000200070BD406C0200064B70B504000360E9
:10CF70004068002804D0056909F049FB2800F8E75B
:10CF8000200070BDA06C0200064B70B50400036069
:10CF90004068002804D0056909F039FB2800F8E74B
:10CFA000200070BD906C02007FB503791548002BFE
:10CFB00022D0154E154C33782000002B1CD102AD29
:10CFC000280008F00EF8002810D16B88592B0DD1DD
:10CFD0002B78AA88D91F012910D800920C4A202149
:10CFE000200005F0E5F80123337004E02022200042
:10CFF000084905F091F9200004B070BD0092064A7E
:10D00000EDE7C046AA760200CE290020AE29002016
:10D01000CC760200C4760200E9760200FC3070B5DE
:10D02000046C0500002C0DD1242009F0F8FA064B01
:10D0300044608361054B8460C46004614461C461E1
:10D0400003602864286C70BD006C0200E86C02006C
:10D05000134B70B508330360124B0400C360802388
:10D06000114A451CFF355B00C250280009F062F8E8
:10D07000280002F0D3FD20000C4BB830E360FFF72E
:10D08000F3FE2000AC30FFF71FFF2000A030FFF7B9
:10D090000BFF20006C30FFF7F7FE200070BDC0468C
:10D0A000146D02005C6D0200A06E0200746B020041
:10D0B000F8B505000400AC356B68AB60A8680028C3
:10D0C00007D0C36821009847AB68002BF4D01B69D8
:10D0D000F3E76868002804D0066909F098FA300080
:10D0E000F8E7220003215832137868608B431370ED
:10D0F00023005C33187020000A3008F0DBF82000B1
:10D10000343008F0D7F8606E002804D0056909F0C3
:10D110007EFA2800F8E725009435606668680028E4
:10D1200004D0066909F073FA3000F8E72600A0364B
:10D1300068607568002D05D02F69280009F067FA2E
:10D140003D00F7E72000290075600C226C3004F0E8
:10D150004BFE2000074BE5672900A3670C228030B7
:10D1600004F042FE2300044A8C33903428001A60F5
:10D170002560F8BD0D500200FF4F0200434BF0B593
:10D1800008330360424B060000251F27C360A0231D
:10D190000400163685B03A002900057185600574D3
:10D1A00043828582300004F01FFE8023802120000E
:10D1B000C9019B0033840A002B00F57738300095B5
:10D1C00000F0C0FE2100403103913A00290003988D
:10D1D00004F00AFE23008022039960339200CD7789
:10D1E0001A80220003216432137820008B431370CD
:10D1F000230068331D70274B2900E3660C22256746
:10D20000783004F0F1FD2300270088331D60224BA5
:10D210000837FB67843729000C22380004F0E4FD4E
:10D220001E4B1F4AFB602300A0333D611A601D4A5C
:10D230005D60DA601C4A1D619A61DD61300008F0B2
:10D2400039F8039808F036F8184B601CE3602300A7
:10D25000C4331D809D70FF3002F0CAFC8C235B003C
:10D26000E55023001933FF335D618023104A5B00D2
:10D27000E250230001222000FE3352425A86023B34
:10D280009D63DD631D6405B0F0BDC046146D0200F2
:10D29000746B0200346B02000D500200FF4F02005D
:10D2A000446B0200546B0200646B02005C6D020070
:10D2B000B46E020070B5074D2B68002B07D1A0207B
:10D2C000400009F0ACF90400FFF758FF2C60286813
:10D2D00070BDC0464C25002070B50C220D00002109
:10D2E000040004F081FD00232361024B200025602F
:10D2F000E36070BD1B50020070B500250400204B98
:10D30000290003601F4B858083601F4BC56043610C
:10D310001E4B856103621E4B4562C3621D4B056354
:10D320008363C5634430FFF7D7FF200029005830DE
:10D33000FFF7D2FF200029006C30FFF7CDFF20005F
:10D34000154B290023607822803004F04DFD200029
:10D350002900F022F83004F047FD2000E9302900D0
:10D360005022FF3004F040FD8E239B00E5540B4B10
:10D3700029002822E01804F037FD200070BDC046C7
:10D38000606C0200106C0200206C0200306C020025
:10D39000406C0200506C0200E86D02003A0200008E
:10D3A00010B50400024B036007F0B2FF200010BD6F
:10D3B000206C020010B50400024B036007F0BDFFB3
:10D3C000200010BD306C020010B5040002F0BEF861
:10D3D000034B1B68002B01D02000984710BDC046AE
:10D3E00054250020F0B58BB0050001F047FA00206D
:10D3F000FFF760FF036807001B6998473B6804005C
:10D400009B69380098473B6806005B6A380098477C
:10D410000200288810380B2861D803F06FF9063D08
:10D420006060605A606060666078AF882000390094
:10D4300008F012FA22006B7B583201931378A87916
:10D440009C46022361460B43137004AB1F800123EB
:10D4500004AA93701300D070019AE91D9A722B00F0
:10D460000622163305A8099304F016FC29000B20A8
:10D4700004AB06220E31C01804F00EFC943463682D
:10D48000A360A06800282AD0C36804A99847A368AD
:10D49000002BF4D01B69F3E720002F49AF8808F078
:10D4A000DBF92200022058321378A97983431370E4
:10D4B00004AB1F809970A0346368A360A068002843
:10D4C0000DD0C36804A99847A368002BF4D01B694A
:10D4D000F3E75369002B02D0A888A91D98472900BB
:10D4E000300008F095FA0BB0F0BD636E002BF6D05B
:10D4F000AF79A366A06E0028F1D0C36839009847C1
:10D50000A36E002B01D1636EF3E71B69F1E70122E3
:10D510000D27AB7BE91D1A4001925A07920F029228
:10D52000DB08062204A8EF57039304F0B5FB019A29
:10D5300004ABDA716A46127A9F711A726A46127BDC
:10D5400020005A722B008C340F33079380302368ED
:10D5500004A99847C3E7C046FFFF00000300072067
:10D56000D72B02D90020014A1360704750250020B4
:10D57000014B18607047C046542500207FB58022BB
:10D58000A323D205DB00D3580820DB0700D40530E5
:10D5900048221C4B1C4902F01DFA00280AD080B218
:10D5A000002807D1BFF34F8F184B194ADA60BFF339
:10D5B0004F8FFEE701230493164B04A81B680193C9
:10D5C000059307F059FF002802D0072007B000BDDF
:10D5D00002A807F04FFF0028F7D102A907F048FF83
:10D5E0000028F2D10C4802F025FA80B20028EDD1D3
:10D5F0000A4802F029FA80B20028E7D100F07CFA4C
:10D60000E4E7C0467D5402005825002000ED00E00C
:10D610000400FA0550250020E5D30100C9D301001C
:10D6200080B2002807D1BFF34F8F034B034ADA6063
:10D63000BFF34F8FFEE7704700ED00E00400FA05EE
:10D64000014B18787047C046CF290020F0B5140070
:10D6500000222C4F1E003B7887B00D0001909342B2
:10D6600014D101F0A7FF0B2200280FD1002E10D0FB
:10D6700003A92230039607F009FF002809D00622EB
:10D68000082803D0113843425841021D100007B04A
:10D69000F0BD002302AA1000137000F0B1FE0B22AF
:10D6A000031EF3D11132A4001440019A6800024312
:10D6B00014431F22144914400D7802A89543113ACF
:10D6C00012181380114B0920039302232C430C7072
:10D6D00003AC237102AB0522C01804F0DDFA21006F
:10D6E0000B4800F0F7FE002807D007220428CDD011
:10D6F00004320828CAD1053AC8E7012302003B706A
:10D70000C4E7C046CF2900208120002091540200A8
:10D71000D029002010B5064800F0AAFF031E06D04D
:10D720000720042B03D00430082B00D1053810BD8E
:10D73000D029002073B56B4604000322581D0E004B
:10D74000002104F051FB0F4B01AD1B782000290094
:10D750002B7001F059FA041E04D00420052C00D0CF
:10D76000073076BD3100280000F0ECFE03002000F9
:10D77000002BF6D00720042BF3D00430082BF0D177
:10D780000538EEE7D029002073B5114C0D000600D6
:10D7900005222100684604F07FFA012D09D00223FA
:10D7A000022D12D10322237893431A00012313433D
:10D7B00002E003222378934323706946300007F088
:10D7C00063FE0023984200D00B33180076BDC0469C
:10D7D00081200020084B01001B78092010B5002B88
:10D7E00008D0064800F0E8FE031E03D003200E2BED
:10D7F00000D0001810BDC046CF290020D02900203D
:10D80000024B0B60092313607047C0460E7702007D
:10D8100010B504000020FFF74DFD03681B69984711
:10D820000300F3331C708623074A5B00C0500433A7
:10D83000C25003000021054A1133FF3359601A61B9
:10D84000F43008F088FC10BD175702002957020079
:10D85000012110B5054A080000F0B4FB03005A1E70
:10D8600093410B205B42184010BDC04611D8010007
:10D87000F0B593B0029000200C00FFF71BFD036889
:10D880005B6A9847FFF7DCFE030006A8002B0DD06B
:10D890000023037105AB0693082303730AAB83606F
:10D8A000FFF798FF002803D013B0F0BD0371037396
:10D8B0000023237323710193029B019ABA331B78CF
:10D8C00093423ED9072353431E00029ABB36D31816
:10D8D000BB331B789619022B2CD1002506AF3B7B5E
:10D8E000AB4220D9AB000393089BAA0030009958A3
:10D8F00007F01BFE00281AD00898AB00C118237B44
:10D90000A6689C469A000B689351634601332373C3
:10D910003B7B5A1E954204D00B4D5B199B001B5854
:10D920000B6006AB1A73019B0133DBB2C3E7013511
:10D93000EDB2D3E7237921689A0001335650237161
:10D94000F1E70020B0E7C046FFFFFF3FF0B504005D
:10D9500008780D009BB0012846D04B88032830D1B1
:10D96000A03B224A9BB2934229D88023AA88032055
:10D97000DB019A4223D20AAB009312AB6A460293B0
:10D9800026000023B836137113733378002B1DD192
:10D9900004AF18220021380004F026FA2B78380052
:10D9A0003B7033783B726B4607936B883B82AB8846
:10D9B0007B8207F0D2FD03000320002B0DD01BB0AB
:10D9C000F0BD203B03200A4A9BB2CCE76946200009
:10D9D000FFF74EFF0028DBD0F1E701225834217811
:10D9E00018000A432270EAE70220E8E7603F0000DF
:10D9F000E03F0000F0B59DB01F006B4605001A70B7
:10DA0000581C0622229E02AC04F046F9002F2ED0AC
:10DA10003B8823807B886380BB88A380FB88E3806E
:10DA20000CAB049314AB6A4606932F000023B9375E
:10DA3000137513773B78002B21D101203B78022707
:10DA400008A903405A000B78BB4304AF4F6013434F
:10DA5000002E1CD12A002C329279834302401343BA
:10DA60000B70AB8D0B81EB8D4B812B8E19E032232C
:10DA70002380DB186380F533A780FF33CFE72800CE
:10DA800004A9FFF7F5FE0028D7D01DB0F0BDB2798C
:10DA90008343024013430B7033880B8173884B819F
:10DAA000B388220068468B8107F06DFD031EECD021
:10DAB000112814D80B20032BE7D9181F0D280CD8D8
:10DAC00002F01CFE150B0B09070B0B0B0B0B0B0BC2
:10DAD00009130620D9E70420D7E70B20D5E7054A2C
